:020000040800F2
:10000000D0040020A9010008CF160008151500082B
:10001000CD160008A10200086921000800000000B8
:10002000000000000000000000000000F3160008BF
:10003000A302000800000000F1160008F5160008F1
:10004000C3010008C3010008C3010008C301000880
:10005000C3010008C3010008A502000859030008F5
:100060000D040008C104000875050008C30100085C
:10007000C3010008C3010008C3010008C301000850
:10008000C3010008C3010008C3010008000000000C
:100090000000000000000000000000002D06000825
:1000A000C3010008C3010008C3010008C301000820
:1000B000C3010008C3010008E5170008C3010008D8
:1000C000C3010008C3010008C3010008C301000800
:1000D000C3010008C91F0008C30100080000000098
:1000E000C3010008C3010008C301000800000000AC
:1000F000000000000000000000000000C301000834
:1001000000000000C3010008C3010008C30100088B
:1001100000000000000000000000000000000000DF
:10012000C3010008C3010008C3010008C30100089F
:10013000C3010008000000000000000000000000F3
:10014000000000000000000000000000C3010008E3
:10015000C3010008C3010008C3010008C30100086F
:10016000C3010008C30100080000000000000000F7
:10017000000000000000000000000000000000007F
:1001800000000000C30100080000000000000000A3
:10019000C3010008DFF80CD000F070F800480047F9
:1001A000D5230008D00400200648804706480047B1
:1001B000FEE7FEE7FEE7FEE7FEE7FEE7FEE7FEE717
:1001C000FEE7FEE791170008950100082DE9F05FB2
:1001D0000546002092469B468846064681464024B6
:1001E0001BE0284641464746224600F036F8534673
:1001F0005A46C01A914110D311461846224600F0C3
:100200001DF82D1A67EB01084F46224601200021F8
:1002100000F014F817EB00094E41201EA4F1010470
:10022000DFDC484631462A464346BDE8F09F421C83
:1002300010F8011B0029FBD1801A7047202A04DB2B
:10024000203A00FA02F1002070479140C2F12003E9
:1002500020FA03F3194390407047202A04DB203A28
:1002600021FA02F00021704721FA02F3D040C2F1D6
:10027000200291400843194670470000064C074D84
:1002800006E0E06840F0010394E807009847103466
:10029000AC42F6D3FFF782FF5C2700087C270008FA
:1002A000FEE770471FB5012000F040FA40232022EE
:1002B000102108208DE80F000423022201211B4891
:1002C00001F02AF90021084602F0EAF918A002F02C
:1002D00093F90121002002F0E3F919A002F08CF952
:1002E0001B4C00222021204600F0F4FA00220121BC
:1002F000204600F0EFFA01220221204600F0EAFA3F
:1003000001220421204600F0E5FA012208212046BE
:1003100000F0E0FA01221021204600F0DBFA04B0E0
:100320000C48BDE8104000F09FBE0000000C0240E9
:1003300046697273742069732052454400000000BE
:100340005365636F6E6420697320475245454E00C4
:1003500000040240400000201FB5022000F0E6F932
:1003600040232022102108208DE80F0004230222C0
:1003700001211B4801F0D0F80021084602F090F955
:1003800018A002F039F90121002002F089F919A022
:1003900002F032F91B4C00220821204600F09AFAA4
:1003A00000220221204600F095FA01222021204659
:1003B00000F090FA01221146204600F08BFA01224B
:1003C0000421204600F086FA01221021204600F088
:1003D00081FA04B00C48BDE8104000F045BE0000B2
:1003E000000C024046697273742069732059454CB1
:1003F0004C4F57005365636F6E64206973205245FC
:100400004400000000040240400000201FB504200A
:1004100000F08CF940232022102108208DE80F00E5
:100420000423022201211B4801F076F8002108462E
:1004300002F036F918A002F0DFF80121002002F0E6
:100440002FF919A002F0D8F81B4C002208212046F1
:1004500000F040FA00220421204600F03BFA01227D
:100460002021204600F036FA01220221204600F029
:1004700031FA01221146204600F02CFA0122102107
:10048000204600F027FA04B00C48BDE8104000F008
:10049000EBBD0000000C0240466972737420697362
:1004A00020475245454E00005365636F6E642069D6
:1004B0007320524544000000000402404000002028
:1004C0001FB5082000F032F9402320221021082017
:1004D0008DE80F000423022201211B4801F01CF8C3
:1004E0000021084602F0DCF818A002F085F801218E
:1004F000002002F0D5F819A002F07EF81B4C002273
:100500000421204600F0E6F900220821204600F0F0
:10051000E1F901222021204600F0DCF9012202212C
:10052000204600F0D7F901221146204600F0D2F90A
:1005300001221021204600F0CDF904B00C48BDE89E
:10054000104000F091BD0000000C0240466972733B
:100550007420697320475245454E00005365636F10
:100560006E6420697320524544000000000402407C
:10057000400000201FB5102000F0D8F840232022B2
:10058000102108208DE80F000423022201211B48BE
:1005900000F0C2FF0021084602F082F818A002F025
:1005A0002BF80121002002F07BF819A002F024F8BA
:1005B0001C4C00220121204600F08CF90022102161
:1005C000204600F087F901222021204600F082F920
:1005D00001220221204600F07DF90122042120465B
:1005E00000F078F901220821204600F073F904B0E8
:1005F0000D48BDE8104000F037BD0000000C02407F
:1006000046697273742069732052454400000000EB
:100610005365636F6E642069732059454C4C4F5786
:100620000000000000040240400000201FB5202010
:1006300000F07CF840232022102108208DE80F00D4
:100640000423022201211B4800F066FF0021084616
:1006500002F026F818A001F0CFFF0121002002F0DF
:100660001FF819A001F0C8FF1B4C002201212046F1
:1006700000F030F900222021204600F02BF9012261
:100680000821204600F026F901220221204600F030
:1006900021F901220421204600F01CF90122102139
:1006A000204600F017F904B00C48BDE8104000F0F7
:1006B000DBBC0000000C0240466972737420697351
:1006C00020524544000000005365636F6E6420694A
:1006D0007320475245454E00000402404000002070
:1006E00090F83510022903D0802141650120704720
:1006F000052180F835100068016821F001010160D2
:100700000020704770B5044600F0EAF80546601C0A
:1007100002D004480078044400F0E2F8401BA042F4
:10072000FAD370BD0000002070470000044910B5E6
:100730000A68024202D00860FFF7F6FF10BD000011
:10074000143C01402DE9F84FDFF860B100224FF072
:1007500001084FF0030A4FF00F090BF1040E00BF20
:100760000B6808FA02F42340A3426ED14D68022DB3
:1007700001D0122D0ED1D50800EB850CDCF82050ED
:100780005607F70E09FA07F6B5430E69BE402E4329
:10079000CCF82060066855000F790AFA05FC07F0CE
:1007A000030726EA0C06AF40374307604E68012E68
:1007B00005D0022E03D0112E01D0122E0ED1866844
:1007C000CF6826EA0C06AF40374387604668A643E9
:1007D0000C79C4F30014944034434460C6688C68B8
:1007E00026EA0C06AC403443C4604C68E40056D59D
:1007F0002F4C256845F480452560246822F00305C8
:1008000004F4804400942B4C2E19D6F80848950720
:100810002F0F09FA07F5AC43274DA84201D1002557
:1008200015E0264DA84201D1012510E0244DA84233
:1008300001D102250BE0234DA84201D1032506E09A
:10084000214DA84202D1042501E028E00725BD4042
:100850002543C6F80858DBF800405D464E689C43C7
:10086000F60300D51C432C60DEF8004075464E6848
:100870009C43B60300D51C432C600C4D08352C68F6
:100880004E689C43F60200D51C432C60074D0C3586
:100890002C684E689C43B60200D51C432C60521C49
:1008A000102AFFF45DAFBDE8F88F0000003C014066
:1008B0004438024000300140000002400004024081
:1008C00000080240000C02400010024042694A4009
:1008D000426170470AB1816170470904FBE700007B
:1008E00001488068704700000000002002488168CD
:1008F0000278114481607047000000200B4810B559
:10090000016841F400710160016841F48061016097
:10091000016841F480710160032000F081F800203B
:1009200000F006F800F024F8002010BD003C024062
:1009300070B50D4D04464FF47A712878B1FBF0F094
:100940000A490968B1FBF0F000F007FB48B9102C28
:1009500007D200222146501E00F042F800206C60B1
:1009600070BD012070BD0000000000203C00002090
:1009700010B5032000F054F8002211466FF00B0070
:1009800000F02EF8002211466FF00A0000F028F85F
:10099000002211466FF0090000F022F800221146F3
:1009A000501F00F01DF800221146101F00F018F82B
:1009B00000221146901E00F013F80022BDE81040FE
:1009C0001146501E00F00CB800F01F0201219140AA
:1009D0004009800000F1E020C0F8001170470000DD
:1009E000F0B40E4B1B680C46C3F30223C3F107059A
:1009F000042D00D90425191D072901D2002300E088
:100A0000DB1E012606FA05F1491E214099409E4051
:100A1000761E16403143F0BC00F05ABE0CED00E0EB
:100A2000064900F0070208684FF6FF03184040EA45
:100A30000220034A10430860704700000CED00E0FC
:100A40000000FA052DE9F0470E46050065D0DFF8F5
:100A50001481D8F80000F7B200F00F00B04207D2BE
:100A600088F80070D8F8000000F00F00B04254D1B0
:100A700028683D4C810712D5400703D5206840F413
:100A8000E05020602878000703D5206840F46040DB
:100A900020602068A96820F0F000084320602878D2
:100AA000C0072DD0304968680839012812D00228C3
:100AB00013D0032811D00968890700292DDA21688D
:100AC00021F0030101432160FFF70AFF814641F253
:100AD000883A0EE009688903EFE709688901ECE7C5
:100AE000FFF7FEFEA0EB0901514502D90320BDE846
:100AF000F0872068696800F00C00B0EB810FEFD13F
:100B0000D8F80010404601F00F01B14207D9077034
:100B1000006800F00F00B04201D00120E7E728781C
:100B2000400705D52068E96820F4E05008432060BC
:100B30002878000706D52068296920F4604040EA3B
:100B4000C100206000F03CF82168084AC1F303119D
:100B5000515CC840064908600020FFF7E9FE00200C
:100B6000C5E70000003C0240083802404427000866
:100B70003C00002001480068704700003C00002055
:100B80000448054900680968044AC1F38221515CA0
:100B9000C84070473C000020083802405427000835
:100BA0000448054900680968044AC1F34231515CB0
:100BB000C84070473C000020083802405427000815
:100BC000154810B5006810F00C02144813D01449F1
:100BD000042A0FD0082A0ED10F4C241F2268236844
:100BE00002F03F025B0207D52068C0F38810A0FB2B
:100BF000010106E0084610BD2168C1F38811A1FB80
:100C000000010023FFF7E2FA2168C1F30141491C0A
:100C10004900B0FBF1F010BD083802400024F40098
:100C200040787D012DE9F84F050076D02878DFF86F
:100C3000F8B2BE4CC00749D0DBF800105846C1F3EB
:100C40008101012908D00068C0F3810002280AD17F
:100C5000201D0068400206D52068800336D56868EC
:100C60000028E2D032E06868B0F5803F10D0B0F5DF
:100C7000A02F206810D020F480302060206820F45D
:100C8000802020606868A0B1FFF72AFE06460CE0CD
:100C9000206840F48030F4E740F480202060F7E7DB
:100CA000FFF71EFE801B642873D820688003F7D5E9
:100CB0000CE0FFF715FE064605E000BFFFF710FE4B
:100CC000801B6428F0D820688003F7D42878DFF8E8
:100CD000608280074FF000093ED5DBF800105846CF
:100CE00011F00C0F09D00068C0F3810002280BD16D
:100CF0008D48001F0068400206D42068800715D583
:100D0000E868012809D111E0E868B8B10120C8F805
:100D10000000FFF7E5FD064605E002E1FFF7E0FD14
:100D2000801B0228C0D820688007F7D52068296971
:100D300020F0F80040EAC10020600DE0C8F8009003
:100D4000FFF7CEFD064604E0FFF7CAFD801B022830
:100D50001FD820688007F7D42878000722D5724E64
:100D6000744869696C3671B101210160FFF7B8FD03
:100D7000074604E0FFF7B4FDC01B022809D830681D
:100D80008007F7D50EE0C0F80090FFF7A9FD0746F1
:100D900005E083E0FFF7A4FDC01B02287ED8306881
:100DA0008007F7D42878400768D5DFF87CA10027B2
:100DB0000AF1380ADAF80000C0000BD4DAF80010A3
:100DC00041F08051CAF80010DAF80000012700F065
:100DD00080500090584E3068C00510D4306840F400
:100DE00080703060FFF77CFD009005E0FFF778FD34
:100DF0000099401A022851D83068C005F6D54A4EED
:100E0000A868683601280FD00528306810D020F077
:100E100001003060306820F004003060A868B8B18C
:100E2000FFF75EFD00900FE0306840F00100F4E74E
:100E300040F004003060F7E7FFF752FD0099411AD7
:100E400041F28830814264D830688007F4D50EE0E2
:100E5000FFF746FD009007E0FFF742FD0099411AB9
:100E600041F28830814254D830688007F4D42FB1E1
:100E7000DAF8001021F08051CAF80010A869C0B358
:100E8000DBF80010C1F3810102294AD0022848464C
:100E900007D0C8F86000FFF723FD00E039E0054601
:100EA0003AE04746C8F86000FFF71AFD064604E03E
:100EB000FFF716FD801B02282BD820688001F7D48D
:100EC000D5E907010843A96A1C4A490802EB014118
:100ED0006A6A41EA8211084395F82C1040EA0161E0
:100EE0001148001F016001203866FFF7F9FC054634
:100EF00005E014E0FFF7F4FC401B022809D8206845
:100F00008001F7D50BE000BFFFF7EAFC401B022889
:100F100002D90320BDE8F88F20688001F4D40020B6
:100F2000F8E70120F6E700000838024000380240E8
:100F300000004742800E4742007000400000FFFF63
:100F40004FF0E0210428086903D020F00400086174
:100F5000704740F00400FAE7704710B5401EB0F14A
:100F6000807F01D3012010BD4FF0E02460610F218C
:100F7000601700F0ADFB0020A06107202061002079
:100F800010BD10B5FFF7E8FF10BD7047704730B5D2
:100F900090F83820012A20D0012280F8382002233E
:100FA00080F8393003685C6824F070045C60036882
:100FB0005C680D682C435C6003689C6824F08004C6
:100FC0009C6003689C6849680C439C6080F83920E9
:100FD000002180F83810084630BD022030BD10B521
:100FE000040003D094F8390010B107E0012010BDCF
:100FF000002084F83800204600F00CF8022084F825
:101000003900211D206800F07DFD012084F83900A1
:10101000002010BD08B500680B49884212D10B486A
:10102000016841F0040101600068002200F0040042
:10103000009002211E20FFF7D3FCBDE808401E20CF
:10104000FFF7C2BC08BD0000000800404038024065
:101050000168CA6842F00102CA600068016841F094
:101060000101016000207047022180F839100168F9
:101070000A6A41F211131A4207D10A6A9B101A42F6
:1010800003D10A6822F001020A60012180F83910B8
:101090000020704770B5044690F83800012817D03A
:1010A000012584F83850022084F8390020688268CD
:1010B00022F0770222F47F4282600868502837D0FD
:1010C0000DDC202859D005DC88B3102841D151E02F
:1010D000022070BD302853D040283AD13FE060282C
:1010E0002ED070280BD0B0F5805F03D0B0F5005F34
:1010F0002FD110E02068816821F0070115E0CB684E
:10110000D1E90121206800F045FD2168886840F0A0
:10111000770088601DE0CB68D1E90121206800F0EC
:1011200039FD2068816841F48041816011E01EE052
:10113000CA684968206800F03FFD5021206806E039
:10114000CA684968206800F048FD6021206800F006
:101150002BFD84F83950002084F8380070BDCA682F
:101160004968206800F028FD40212068EFE7002151
:101170002068ECE710212068E9E720212068E6E7F5
:1011800030212068E3E7704770B5044600680169C4
:101190004FF00005C943890715D4C168C9438907C1
:1011A00011D4E91E01610120207620688069800742
:1011B000204602D0FFF7E7FF04E000F098F8204651
:1011C00000F096F8257620680169C943490717D4CD
:1011D000C168C943490713D46FF0040101610220BB
:1011E00020762068806910F4407F204602D0FFF707
:1011F000CAFF04E000F07BF8204600F079F825767D
:1012000020680169C943090716D4C168C9430907A1
:1012100012D46FF008010161042020762068C069B3
:101220008007204602D0FFF7AEFF04E000F05FF831
:10123000204600F05DF8257620680169C943C9069B
:1012400017D4C168C943C90613D46FF010010161F6
:10125000082020762068C06910F4407F204602D024
:10126000FFF791FF04E000F042F8204600F040F85C
:10127000257620680169C943C90708D1C168C943F7
:10128000C90704D1891E0161204600F032F82068A8
:101290000169C943090609D4C168C943090605D4CF
:1012A0006FF0800101612046FFF76FFE2068016941
:1012B000C943490609D4C168C943490605D46FF03A
:1012C00040010161204600F015F820680169C9431A
:1012D00089060BD4C168C943890607D46FF0200181
:1012E00001612046BDE87040FFF750BE70BD7047F9
:1012F000704770477047704770B5026804461068C1
:10130000D168536910F00F0F50D003F0010501F4BC
:10131000907635435DD0C20705D0CA0503D5E26B90
:1013200042F00102E263420705D5DA0703D0E26B1F
:1013300042F00202E263820705D5DA0703D0E26BCE
:1013400042F00402E263020705D5DA0703D0E26B3C
:1013500042F00802E263E26B002A33D0800604D533
:10136000880602D5204600F060FC20684069E16BE9
:10137000C0F38010090700D428B3204600F047FCD2
:101380002068416949061AD5416921F0400141614F
:10139000606BA0B11B490165606BFFF7A1F90028E4
:1013A00010D0606B016DBDE870400847830610D512
:1013B0008B060ED52046BDE8704000F036BC2046B6
:1013C000FFF799FF70BD2046FFF795FF0020E0630F
:1013D00070BD030606D50B0604D52046BDE8704057
:1013E00000F0C0BD4006F3D54806F1D5D1682046CF
:1013F00021F04001D160202184F8391000F089F8F3
:1014000070BD0000FF1B000870B5040004D094F804
:101410003900002510B106E0012070BD84F8385075
:10142000204600F023F8242084F839002068C168A1
:1014300021F40051C160204600F03EFC20680169A3
:1014400021F4904101612068416921F02A01416144
:101450002068C16841F40051C160E563202084F830
:10146000390084F83A00002070BD000000B5006823
:10147000124987B088421FD11148016841F010011C
:1014800001600068694600F0100005904FF4C060EC
:101490000090022001900120029003200390072079
:1014A00004900848FFF74EF9002201212520FFF79C
:1014B00097FA2520FFF788FA07B000BD0010014019
:1014C000443802400000024090F83A30202B1DD1F1
:1014D000D1B1CAB190F83830012B17D08162828522
:1014E000C2850021C163222280F83A2080F838109A
:1014F00001684A6942F001024A610068C16841F42A
:101500009071C16000207047012070470220704731
:1015100070477047FEE70000F0B589B00C460F49F0
:10152000DDE9106591F800E00021DDE90EC70591C5
:101530000691CDE9003C079108911346BEF1000FDA
:1015400002972246014601D0012000E00020CDE9AB
:10155000036500F017FF09B0F0BD0000280000206F
:101560002DE9F0413F4886B00024016841F0800138
:101570000160016801F080010591016841F00101FD
:101580000160016801F001010591016841F002016B
:101590000160016801F002010591016841F0080154
:1015A00001600068304F00F00800059001223F21E3
:1015B0003846FFF78FF9DFF8B48047F6FF76002250
:1015C00031464046FFF786F93F2529480095CDE989
:1015D000010469462748FFF7B5F800950125CDE9D4
:1015E0000154694638460394FFF7ACF80096CDE9FC
:1015F0000154694640460394FFF7A4F800220121F4
:101600000620FFF7EDF90620FFF7DEF900220121A1
:101610000720FFF7E5F90720FFF7D6F9002201219F
:101620000820FFF7DDF90820FFF7CEF9002201219D
:101630000920FFF7D5F90920FFF7C6F9002201219B
:101640000A20FFF7CDF90A20FFF7BEF90022012199
:101650001720FFF7C5F91720FFF7B6F906B0BDE868
:10166000F08100003038024000040240000C0240CB
:10167000000011100000024010B5134886B0114957
:1016800001609F210024C0E9011442F21071C0E9F9
:101690000314FFF7A4FC00B1FEE74FF48050009064
:1016A00069460948FFF7F6FC00B1FEE7049404A977
:1016B00005480594FFF76BFC002800D0FEE706B054
:1016C00010BD00000008004040000020FEE7704709
:1016D0000907090E002806DA00F00F0000F1E020EB
:1016E00080F8141D704700F1E02080F80014704766
:1016F0007047704710B5FFF7F9F8BDE81040FFF7E5
:1017000040BC000010B5204892B00024016841F0B0
:1017100080510160006800F0805011901B48016802
:1017200021F4404141F4004101600068069400F456
:10173000404011900220009001200390102004905E
:101740006846FFF76FFA00B1FEE70F20CDE90C0401
:101750000E940F9400210CA81094FFF773F900B1B8
:10176000FEE7FFF707FA4FF47A71B0FBF1F0FFF7ED
:10177000F4FB0420FFF7E4FB00221146501EFFF7A4
:101780002FF912B010BD0000403802400070004038
:101790001048016841F4700101600F48016841F090
:1017A000010101600C4A00210832116002680B4BF4
:1017B0001A400260031D0A4A1A60026822F480225D
:1017C000026005480C300160024958068039086003
:1017D0007047000088ED00E000380240FFFFF6FE91
:1017E000103000242DE9FF5FA448FFF7CDFC402313
:1017F0002022102108208DE80F00DFF884B2042396
:10180000022201215846FFF787FE9E4CDFF87882BE
:10181000DFF878A220689E4F9E4E9F4D282824D145
:1018200002213846FFF752F801213846FFF74EF8FB
:10183000D8F80000306008213846FFF747F820212B
:101840003846FFF743F8DAF8000028600020014628
:10185000206000F025FF91A000F0CEFE01210020C5
:1018600000F01EFF91A000F0C7FE20682438042875
:101870000DD20021084600F013FF90A000F0BCFE3E
:101880000121002000F00CFF90A000F0B5FE2068C0
:10189000DFF84892232818D104213846FFF716F8BC
:1018A00002213846FFF712F8D9F800000021306015
:1018B000084600F0F5FE81A000F09EFE0121002008
:1018C00000F0EEFE81A000F097FE206815380E288B
:1018D0000DD20021084600F0E3FE81A000F08CFE4E
:1018E0000121002000F0DCFE78A000F085FE2068D9
:1018F000142823D101213846FEF7E8FF0421384699
:10190000FEF7E4FFDAF80000306010213846FEF7F9
:10191000DDFF08213846FEF7D9FFD8F80000002186
:101920002860084600F0BCFE6DA000F065FE0121B5
:10193000002000F0B5FE65A000F05EFE20681038C3
:1019400004280DD20021084600F0AAFE53A000F0A2
:1019500053FE0121002000F0A3FE65A000F04CFE24
:1019600020680F2818D120213846FEF7AFFF10213C
:101970003846FEF7ABFF0021084600F091FE47A075
:1019800000F03AFE0121002000F08AFE58A000F08D
:1019900033FED9F8000028602068401E0E280DD2C2
:1019A0000021084600F07CFE3CA000F025FE01214D
:1019B000002000F075FE3DA000F01EFE2068401CD7
:1019C000206030680A2490FBF4F000F0B9FD4FF479
:1019D0000068012241465F465846FEF77BFF012022
:1019E000FEF790FE002241463846FEF773FF30684E
:1019F00090FBF4F104FB110000F0A2FD4FF48058BD
:101A0000012241463846FEF765FF0120FEF77AFEC7
:101A1000002241463846FEF75DFF3068401E3060C8
:101A2000286890FBF4F000F08BFD0122560331464C
:101A30003846FEF74FFF0120FEF764FE00223146D4
:101A40003846FEF747FF286890FBF4F104FB1100CD
:101A500000F076FD0122940321463846FEF73AFF56
:101A60000120FEF74FFE002221463846FEF732FFE6
:101A70002868401E2860BDE8FF9F0000400000204D
:101A8000000C02400C0000201C0000202000002060
:101A90000004024010000020140000204669727308
:101AA0007420697320524544000000005365636F41
:101AB0006E6420697320475245454E004669727333
:101AC000742069732059454C4C4F57005365636F20
:101AD0006E642069732052454400000024000020F9
:101AE000466972737420697320475245454E000061
:101AF0005365636F6E642069732059454C4C4F5792
:101B000000000000F0B502681B4B1C4C9F031C4DED
:101B10001C4E984207D0B84205D0A04203D0A8423C
:101B200001D0B04204D122F0700C4A6842EA0C02A3
:101B3000984210D0B8420ED0A0420CD0A8420AD091
:101B4000B04208D0104CA04205D0104CA04202D0A8
:101B50000F4CA04203D122F44074CA6822430260B1
:101B60008A68C2620A688262984201D10969016387
:101B700001214161F0BD000000000140000400406F
:101B800000080040000C00400040014000440140BB
:101B90000048014010B5846842EA032224F47F44DF
:101BA0000A432243826010BD826822F070020A4319
:101BB00042F007018160704710B5036A046A24F09F
:101BC00001040462846924F0F00444EA021423F05E
:101BD0000A020A438461026210BD10B5036A23F051
:101BE000100303628369046A23F4704343EA0232F8
:101BF00024F0A00343EA01118261016210BD10B517
:101C0000806B0021C185C184FFF775FB10BD0168A1
:101C1000CA6822F49072CA6001684A6922F001021F
:101C20004A61202180F83A10704710B590F83A10B8
:101C3000222901D0022010BD8168B1F5805F11D04A
:101C40000169002901681FD0496801F07F03816A9A
:101C50004A1C82620B70C18D491E0904090CC185A2
:101C600018D026E00269816A002A0268526805D00D
:101C7000D2B20A80816A491C8162ECE7C2F3080291
:101C80000A80816A891CF7E74A68816A4B1C836273
:101C90000A70E0E70168CA6822F49072CA600168BD
:101CA0004A6922F001024A61202180F83A10FFF7C8
:101CB0002FFC002010BD00002DE9F0410446006813
:101CC000016921F44052E168114301612168C8684B
:101CD00049F20C6290432369A268E5691A4363697B
:101CE0002B431A430243CA602168486920F44072BA
:101CF000A06910434861E1696425B1F5004F974838
:101D0000974A21684FF032083FD0914201D081427A
:101D10007CD1FEF745FF00EBC00101EB00106168CC
:101D20008900B0FBF1F6FEF73BFF00EBC00101EBD1
:101D3000001061688900B0FBF1F0B0FBF5F06FF0C6
:101D40001801484306EB800108EB0110B0FBF5F0E9
:101D500000F0F006FEF724FF00EBC00101EB0010DD
:101D600061688900B0FBF1F0B0FBF5F006EB0016FE
:101D7000FEF716FF00EBC00101EB0010616889005F
:101D8000B0FBF1F7FEF70CFFD2E0914201D08142A7
:101D90003DD1FEF705FF00EBC00101EB00106168CB
:101DA0004900B0FBF1F0B0FBF5F00601FEF7F8FEDC
:101DB00000EBC00101EB001061684900B0FBF1F7D6
:101DC000FEF7EEFE00EBC00101EB00106168490078
:101DD000B0FBF1F0B0FBF5F06FF01801484307EBF2
:101DE000800108EBC100B0FBF5F000F0F80006EB55
:101DF0004006FEF7D5FE00EBC00101EB0010616864
:101E00004900B0FBF1F7FEF7CBFE3CE055E0FEF7F2
:101E1000B7FE00EBC00101EB001061684900B0FBA8
:101E2000F1F0B0FBF5F00601FEF7AAFE00EBC001F1
:101E300001EB001061684900B0FBF1F7FEF7A0FE6E
:101E400000EBC00101EB001061684900B0FBF1F04C
:101E5000B0FBF5F06FF01801484307EB800108EB89
:101E6000C100B0FBF5F000F0F80006EB4006FEF70D
:101E700087FE00EBC00101EB001061684900B0FB78
:101E8000F1F7FEF77DFE00EBC00101EB0010616889
:101E90004900B0FBF1F0B0FBF5F06FF018014843DA
:101EA00007EB800108EBC100B0FBF5F000F0070084
:101EB000216830448860BDE8F081FEF761FE00EBE8
:101EC000C00101EB001061688900B0FBF1F6FEF77C
:101ED00057FE00EBC00101EB001061688900B0FB08
:101EE000F1F0B0FBF5F06FF01801484306EB80010C
:101EF00008EB0110B0FBF5F000F0F006FEF740FE35
:101F000000EBC00101EB001061688900B0FBF1F04B
:101F1000B0FBF5F006EB0016FEF732FE00EBC00159
:101F200001EB001061688900B0FBF1F7FEF728FEB5
:101F300000EBC00101EB001061688900B0FBF1F01B
:101F4000B0FBF5F06FF01801484307EB800108EB98
:101F50000110B0FBF5F000F00F00A9E700140140FC
:101F60000010014090F83910212901D0022070475B
:101F70008168B1F5805F016A0BD04A1C0262026879
:101F800009785160C18C491E0904090CC1840ED026
:101F900017E009880268C1F308015160016900294E
:101FA000016A02D0491C0162ECE7891CFBE7016869
:101FB000CA6822F08002CA600068C16841F040012E
:101FC000C1600020704700001FB54948FFF794F931
:101FD00040232022102108208DE80F000423022234
:101FE00001214448FFF798FA434C0122082120467A
:101FF000FEF770FC012220212046FEF76BFC012237
:1020000002212046FEF766FC012204212046FEF74D
:1020100061FC012211462046FEF75CFC01221021E2
:102020002046FEF757FC3548FFF71EF83448007885
:102030003038062814D2DFE800F045031B1B30457A
:1020400002212046FEF742FC08212046FEF73EFC16
:102050000021084600F024FB2AA016E000F0CCFA8C
:1020600004B00122BDE8104025492148FFF72CBAF1
:1020700004212046FEF72AFC08212046FEF726FC14
:102080000021084600F00CFB22A000F0B5FA012167
:10209000002000F005FB23A0E0E701212046FEF729
:1020A00015FC10212046FEF711FC0021084600F027
:1020B000F7FA20A000F0A0FA0121002000F0F0FAC9
:1020C00020A0CBE701212046FEF700FC202120467E
:1020D000FEF7FCFB0021084600F0E2FA15A000F034
:1020E0008BFA0121002000F0DBFA1BA0B6E700000C
:1020F0007C000020000C0240000402404000002050
:102100001800002046697273742069732059454C89
:102110004C4F5700466972737420697320475245CB
:10212000454E00005365636F6E642069732052450D
:10213000440000004669727374206973205245445C
:10214000000000005365636F6E6420697320594579
:102150004C4C4F57000000005365636F6E6420695C
:102160007320475245454E00FEE702E008C8121FA3
:1021700008C1002AFAD170477047002001E001C170
:10218000121F002AFBD1704730B54B4C85B00D466D
:10219000012903D9A17841F00801A17000F14003A1
:1021A000024665714021002000F08EFA607828B167
:1021B000012D03D1A07840F00400A07000F098F841
:1021C000012002250190039521783C480029E288EE
:1021D0000188638941EA0201228942EA030241EA55
:1021E0000201428841EA0201828841EA020101D0EB
:1021F000C08808E0C2881143028911434289114313
:102200008289C0891143014300916946E068FEF765
:1022100099FA3220FEF776FA0022E188E068FEF7AC
:1022200059FB00226189E068FEF754FB2189FF29F0
:1022300003D00022E068FEF74DFBA078C10615D45C
:10224000032000F04BFA0520FEF75CFA032000F0B3
:1022500045FA0520FEF756FA032000F03FFA012068
:10226000FEF750FA022000F039FA13E040F02000A7
:1022700000F02FF80520FEF745FAA07840F0200086
:1022800000F027F80120FEF73DFAA07840F020008A
:1022900000F01FF8A07840F0200000F01AF80420A9
:1022A000E07000F019F800F00BF82571062000F03E
:1022B00010F805B030BD000028000020BC00002050
:1022C00010B5012000F005F8BDE810400220FEF72F
:1022D00019BA002100F0C2B90449C87840F00400DE
:1022E000C87040F00800FFF7F4BF0000280000208D
:1022F0001D4808B51D4AC1681D48914207D10168B3
:1023000041F001010160006800F0010009E0194A94
:10231000914208D1016841F002010160006800F0BB
:102320000200009008BD144A914207D1016841F0B3
:1023300004010160006800F00400F2E70F4A9142D6
:1023400007D1016841F008010160006800F0080051
:10235000E7E70B4A9142E5D1016841F010010160C5
:10236000006800F01000DCE72800002000000240B8
:10237000303802400004024000080240000C0240D5
:10238000001002402DE9F05F0AAC94E8E05F0F4CCA
:10239000E28023816581E1600D490E804F80A1F8C4
:1023A0000480A1F80690A1F808A0A1F80AB0A1F84D
:1023B0000CC0A1F80EE008B1002000E01020A070D1
:1023C000BDE8F05F02211020FFF7DEBE28000020EC
:1023D000BC0000201FB5FEF791FA402320221021F7
:1023E00008208DE80F00494D0423022201212846D0
:1023F000FFF792F80021084600F052F944A000F0DF
:10240000FBF80121002000F04BF945A000F0F4F8A2
:10241000FFF778F9FFF7A4F8FFF72EF9454944488C
:10242000002208604FF41650C1E901020C20CA6076
:10243000C1E904208A610846CA61FEF7E5FF00B1E0
:10244000FEE73D4C01212046FEF740FA20212046C0
:10245000FEF73CFA37483C38FEF7FAFD374C0A26BF
:10246000606890FBF6F000F099F80122D702394637
:102470002846FEF72FFA0120FEF744F900223946DC
:102480002846FEF727FA606890FBF6F106FB11007C
:1024900000F084F80122170339462846FEF71AFA9D
:1024A0000120FEF72FF9002239462846FEF712FADE
:1024B000A06890FBF6F000F071F80122570339464E
:1024C0002846FEF707FA0120FEF71CF900223946DC
:1024D0002846FEF7FFF9A06890FBF6F106FB110015
:1024E00000F05CF80122940321462846FEF7F2F939
:1024F0000120FEF707F9002221462846FEF7EAF9F7
:1025000001220E490B48FEF7DFFFFEE7000C0240F8
:1025100046697273742069732052454400000000BC
:102520005365636F6E6420697320475245454E00C2
:10253000001001407C000020000402401800002030
:102540002DE9F04100F0010200F0020600F0040560
:1025500000F00804002A00DD0122002E00DD012623
:10256000002D00DD0125002C00DD01240A4F802113
:102570003846FEF7AFF93246B9153846FEF7AAF9E4
:102580002A4679153846FEF7A5F922463915384608
:10259000BDE8F041FEF79EB9000C02402DE9F04184
:1025A00000F0010200F0020600F0040500F008044B
:1025B000002A00DD0122002E00DD0126002D00DDB5
:1025C0000125002C00DD01240A4F80213846FEF74A
:1025D00081F93246B9153846FEF77CF92A46791555
:1025E0003846FEF777F9224639153846BDE8F041FE
:1025F000FEF770B9000C024070B500280FD00446F9
:10260000FDF715FE0546002606E000BF14F8010B95
:10261000012100F023F8761C6D1EF7D2304670BD04
:1026200010B50D4C00226189E068FEF753F90120D6
:10263000FEF768F801226189E068FEF74BF9012096
:10264000FEF760F800226189E068FEF743F9BDE813
:1026500010400120FEF756B82800002070B50F4C3E
:1026600005460A46E188E068FEF734F92189FF292A
:1026700003D00022E068FEF72DF9A078C00604D54B
:102680002846BDE8704000F043B8280900F026F85D
:102690002846BDE8704000F021B800002800002066
:1026A000042900D30321074A5279914201D3521ED3
:1026B000D1B2044A1032515C0844C0B240F08000EC
:1026C000FFF707BE2800002010B5034C2070617092
:1026D000A270E37010BD0000380000202DE9F04129
:1026E000094E0A4F0546002425FA04F000F00102C5
:1026F00036F81410F868FEF7EDF8641C042CF3DBD0
:10270000BDE8F041FFF78CBFBC000020280000208E
:102710002DE9F041094E0A4F0546002425FA04F040
:1027200000F0010236F81410F868FEF7D3F8641CC4
:10273000082CF3DBBDE8F041FFF772BFBC000020BE
:102740002800002000000000000000000102030437
:102750000607080900000000010203047C270008A6
:1027600000000020400000006A210008BC2700088B
:1027700040000020900400007A21000801000000C1
:102780001000000000000000010000001300000025
:102790000E00000000000000140000000F00000008
:1027A0000500000001000000000000000000000023
:0C27B00000000000000000000024F40005
:040000050800019559
:00000001FF
